{
  "_format": "hh-sol-artifact-1",
  "contractName": "CreatorTipping",
  "sourceName": "contracts/CreatorTipping.sol",
  "abi": [
    {
      "inputs": [],
      "stateMutability": "nonpayable",
      "type": "constructor"
    },
    {
      "anonymous": false,
      "inputs": [
        {
          "indexed": true,
          "internalType": "address",
          "name": "previousOwner",
          "type": "address"
        },
        {
          "indexed": true,
          "internalType": "address",
          "name": "newOwner",
          "type": "address"
        }
      ],
      "name": "OwnershipTransferred",
      "type": "event"
    },
    {
      "anonymous": false,
      "inputs": [
        {
          "indexed": true,
          "internalType": "address",
          "name": "creator",
          "type": "address"
        },
        {
          "indexed": false,
          "internalType": "string",
          "name": "username",
          "type": "string"
        }
      ],
      "name": "ProfileCreated",
      "type": "event"
    },
    {
      "anonymous": false,
      "inputs": [
        {
          "indexed": true,
          "internalType": "address",
          "name": "creator",
          "type": "address"
        },
        {
          "indexed": false,
          "internalType": "string",
          "name": "username",
          "type": "string"
        }
      ],
      "name": "ProfileUpdated",
      "type": "event"
    },
    {
      "anonymous": false,
      "inputs": [
        {
          "indexed": true,
          "internalType": "address",
          "name": "from",
          "type": "address"
        },
        {
          "indexed": true,
          "internalType": "address",
          "name": "to",
          "type": "address"
        },
        {
          "indexed": false,
          "internalType": "uint256",
          "name": "amount",
          "type": "uint256"
        },
        {
          "indexed": false,
          "internalType": "address",
          "name": "token",
          "type": "address"
        },
        {
          "indexed": false,
          "internalType": "string",
          "name": "message",
          "type": "string"
        },
        {
          "indexed": false,
          "internalType": "uint256",
          "name": "tipIndex",
          "type": "uint256"
        }
      ],
      "name": "TipSent",
      "type": "event"
    },
    {
      "inputs": [
        {
          "internalType": "string",
          "name": "_username",
          "type": "string"
        },
        {
          "internalType": "string",
          "name": "_bio",
          "type": "string"
        },
        {
          "internalType": "string",
          "name": "_avatarURI",
          "type": "string"
        },
        {
          "internalType": "string[]",
          "name": "_socials",
          "type": "string[]"
        }
      ],
      "name": "createProfile",
      "outputs": [],
      "stateMutability": "nonpayable",
      "type": "function"
    },
    {
      "inputs": [
        {
          "internalType": "address",
          "name": "",
          "type": "address"
        }
      ],
      "name": "creatorProfiles",
      "outputs": [
        {
          "internalType": "string",
          "name": "username",
          "type": "string"
        },
        {
          "internalType": "string",
          "name": "bio",
          "type": "string"
        },
        {
          "internalType": "string",
          "name": "avatarURI",
          "type": "string"
        },
        {
          "internalType": "uint256",
          "name": "totalTipsReceived",
          "type": "uint256"
        },
        {
          "internalType": "uint256",
          "name": "tipCount",
          "type": "uint256"
        },
        {
          "internalType": "bool",
          "name": "exists",
          "type": "bool"
        }
      ],
      "stateMutability": "view",
      "type": "function"
    },
    {
      "inputs": [
        {
          "internalType": "address",
          "name": "",
          "type": "address"
        },
        {
          "internalType": "uint256",
          "name": "",
          "type": "uint256"
        }
      ],
      "name": "creatorTips",
      "outputs": [
        {
          "internalType": "uint256",
          "name": "",
          "type": "uint256"
        }
      ],
      "stateMutability": "view",
      "type": "function"
    },
    {
      "inputs": [
        {
          "internalType": "uint256",
          "name": "",
          "type": "uint256"
        }
      ],
      "name": "creators",
      "outputs": [
        {
          "internalType": "address",
          "name": "",
          "type": "address"
        }
      ],
      "stateMutability": "view",
      "type": "function"
    },
    {
      "inputs": [],
      "name": "getAllCreators",
      "outputs": [
        {
          "internalType": "address[]",
          "name": "",
          "type": "address[]"
        }
      ],
      "stateMutability": "view",
      "type": "function"
    },
    {
      "inputs": [
        {
          "internalType": "address",
          "name": "_creator",
          "type": "address"
        }
      ],
      "name": "getCreatorProfile",
      "outputs": [
        {
          "components": [
            {
              "internalType": "string",
              "name": "username",
              "type": "string"
            },
            {
              "internalType": "string",
              "name": "bio",
              "type": "string"
            },
            {
              "internalType": "string",
              "name": "avatarURI",
              "type": "string"
            },
            {
              "internalType": "string[]",
              "name": "socials",
              "type": "string[]"
            },
            {
              "internalType": "uint256",
              "name": "totalTipsReceived",
              "type": "uint256"
            },
            {
              "internalType": "uint256",
              "name": "tipCount",
              "type": "uint256"
            },
            {
              "internalType": "bool",
              "name": "exists",
              "type": "bool"
            }
          ],
          "internalType": "struct CreatorTipping.CreatorProfile",
          "name": "",
          "type": "tuple"
        }
      ],
      "stateMutability": "view",
      "type": "function"
    },
    {
      "inputs": [
        {
          "internalType": "address",
          "name": "_creator",
          "type": "address"
        }
      ],
      "name": "getCreatorSocials",
      "outputs": [
        {
          "internalType": "string[]",
          "name": "",
          "type": "string[]"
        }
      ],
      "stateMutability": "view",
      "type": "function"
    },
    {
      "inputs": [
        {
          "internalType": "address",
          "name": "_creator",
          "type": "address"
        }
      ],
      "name": "getCreatorTips",
      "outputs": [
        {
          "internalType": "uint256[]",
          "name": "",
          "type": "uint256[]"
        }
      ],
      "stateMutability": "view",
      "type": "function"
    },
    {
      "inputs": [
        {
          "internalType": "uint256",
          "name": "_tipIndex",
          "type": "uint256"
        }
      ],
      "name": "getTip",
      "outputs": [
        {
          "components": [
            {
              "internalType": "address",
              "name": "from",
              "type": "address"
            },
            {
              "internalType": "address",
              "name": "to",
              "type": "address"
            },
            {
              "internalType": "uint256",
              "name": "amount",
              "type": "uint256"
            },
            {
              "internalType": "address",
              "name": "token",
              "type": "address"
            },
            {
              "internalType": "uint256",
              "name": "timestamp",
              "type": "uint256"
            },
            {
              "internalType": "string",
              "name": "message",
              "type": "string"
            }
          ],
          "internalType": "struct CreatorTipping.Tip",
          "name": "",
          "type": "tuple"
        }
      ],
      "stateMutability": "view",
      "type": "function"
    },
    {
      "inputs": [],
      "name": "getTotalTips",
      "outputs": [
        {
          "internalType": "uint256",
          "name": "",
          "type": "uint256"
        }
      ],
      "stateMutability": "view",
      "type": "function"
    },
    {
      "inputs": [
        {
          "internalType": "address",
          "name": "",
          "type": "address"
        }
      ],
      "name": "isCreator",
      "outputs": [
        {
          "internalType": "bool",
          "name": "",
          "type": "bool"
        }
      ],
      "stateMutability": "view",
      "type": "function"
    },
    {
      "inputs": [],
      "name": "owner",
      "outputs": [
        {
          "internalType": "address",
          "name": "",
          "type": "address"
        }
      ],
      "stateMutability": "view",
      "type": "function"
    },
    {
      "inputs": [],
      "name": "renounceOwnership",
      "outputs": [],
      "stateMutability": "nonpayable",
      "type": "function"
    },
    {
      "inputs": [
        {
          "internalType": "address",
          "name": "_creator",
          "type": "address"
        },
        {
          "internalType": "address",
          "name": "_token",
          "type": "address"
        },
        {
          "internalType": "uint256",
          "name": "_amount",
          "type": "uint256"
        },
        {
          "internalType": "string",
          "name": "_message",
          "type": "string"
        }
      ],
      "name": "tipERC20",
      "outputs": [],
      "stateMutability": "nonpayable",
      "type": "function"
    },
    {
      "inputs": [
        {
          "internalType": "address",
          "name": "_creator",
          "type": "address"
        },
        {
          "internalType": "string",
          "name": "_message",
          "type": "string"
        }
      ],
      "name": "tipETH",
      "outputs": [],
      "stateMutability": "payable",
      "type": "function"
    },
    {
      "inputs": [
        {
          "internalType": "uint256",
          "name": "",
          "type": "uint256"
        }
      ],
      "name": "tips",
      "outputs": [
        {
          "internalType": "address",
          "name": "from",
          "type": "address"
        },
        {
          "internalType": "address",
          "name": "to",
          "type": "address"
        },
        {
          "internalType": "uint256",
          "name": "amount",
          "type": "uint256"
        },
        {
          "internalType": "address",
          "name": "token",
          "type": "address"
        },
        {
          "internalType": "uint256",
          "name": "timestamp",
          "type": "uint256"
        },
        {
          "internalType": "string",
          "name": "message",
          "type": "string"
        }
      ],
      "stateMutability": "view",
      "type": "function"
    },
    {
      "inputs": [
        {
          "internalType": "address",
          "name": "newOwner",
          "type": "address"
        }
      ],
      "name": "transferOwnership",
      "outputs": [],
      "stateMutability": "nonpayable",
      "type": "function"
    },
    {
      "inputs": [
        {
          "internalType": "string",
          "name": "_username",
          "type": "string"
        },
        {
          "internalType": "string",
          "name": "_bio",
          "type": "string"
        },
        {
          "internalType": "string",
          "name": "_avatarURI",
          "type": "string"
        },
        {
          "internalType": "string[]",
          "name": "_socials",
          "type": "string[]"
        }
      ],
      "name": "updateProfile",
      "outputs": [],
      "stateMutability": "nonpayable",
      "type": "function"
    }
  ],
  "bytecode": "0x608060405234801561001057600080fd5b50600160005561001f33610024565b610076565b600180546001600160a01b038381166001600160a01b0319831681179093556040519116919082907f8be0079c531659141344cd1fd0a4f28419497f9722a3daafe3b4186f6b6457e090600090a35050565b61265c806100856000396000f3fe6080604052600436106101095760003560e01c806396a03cc511610095578063cd53d08e11610064578063cd53d08e14610317578063d39702ef14610337578063efd460651461034a578063f2fde38b1461038a578063f97fac4d146103aa57600080fd5b806396a03cc51461025e5780639e39e58d1461028b578063a5c68c59146102b8578063b8eba45e146102ea57600080fd5b80635b703f5c116100dc5780635b703f5c146101985780636ba57b8f146101c5578063715018a6146101e55780638da5cb5b146101fa57806395b04be21461022c57600080fd5b80631053c8d31461010e5780631e93f1f7146101305780634d5e42771461016357806355f203b514610183575b600080fd5b34801561011a57600080fd5b5061012e610129366004611ee7565b6103cc565b005b34801561013c57600080fd5b5061015061014b366004611f4f565b6107ee565b6040519081526020015b60405180910390f35b34801561016f57600080fd5b5061012e61017e366004611f79565b61081f565b34801561018f57600080fd5b50600554610150565b3480156101a457600080fd5b506101b86101b33660046120a5565b610b88565b60405161015a9190612104565b3480156101d157600080fd5b5061012e6101e0366004611f79565b610d32565b3480156101f157600080fd5b5061012e611021565b34801561020657600080fd5b506001546001600160a01b03165b6040516001600160a01b03909116815260200161015a565b34801561023857600080fd5b5061024c610247366004612167565b611035565b60405161015a96959493929190612189565b34801561026a57600080fd5b5061027e610279366004612167565b611206565b60405161015a91906121e3565b34801561029757600080fd5b506102ab6102a6366004612167565b611272565b60405161015a919061227c565b3480156102c457600080fd5b506102d86102d33660046120a5565b61158f565b60405161015a9695949392919061231f565b3480156102f657600080fd5b5061030a610305366004612167565b611672565b60405161015a919061236d565b34801561032357600080fd5b506102146103323660046120a5565b611764565b61012e610345366004612380565b61178e565b34801561035657600080fd5b5061037a610365366004612167565b60036020526000908152604090205460ff1681565b604051901515815260200161015a565b34801561039657600080fd5b5061012e6103a5366004612167565b611b77565b3480156103b657600080fd5b506103bf611bf0565b60405161015a91906123ce565b6103d4611c52565b600082116104225760405162461bcd60e51b8152602060048201526016602482015275054697020616d6f756e74206d757374206265203e20360541b60448201526064015b60405180910390fd5b6001600160a01b03841660009081526002602052604090206006015460ff166104855760405162461bcd60e51b815260206004820152601560248201527410dc99585d1bdc88191bd95cdb89dd08195e1a5cdd605a1b6044820152606401610419565b336001600160a01b038516036104d35760405162461bcd60e51b815260206004820152601360248201527221b0b73737ba103a34b8103cb7bab939b2b63360691b6044820152606401610419565b6001600160a01b0383166105215760405162461bcd60e51b8152602060048201526015602482015274496e76616c696420746f6b656e206164647265737360581b6044820152606401610419565b6040516323b872dd60e01b81523360048201526001600160a01b038581166024830152604482018490528416906323b872dd906064016020604051808303816000875af1158015610576573d6000803e3d6000fd5b505050506040513d601f19601f8201168201806040525081019061059a919061240f565b50600580546040805160c0810182523381526001600160a01b038881166020830190815292820187815288821660608401908152426080850190815260a085018981526001880189556000989098528451600688027f036b6384b5eca791c62761152d0c79bb0604c104a5fb6f4eb0703f3154bb3db0810180549287166001600160a01b031993841617815597517f036b6384b5eca791c62761152d0c79bb0604c104a5fb6f4eb0703f3154bb3db18201805491881691841691909117905593517f036b6384b5eca791c62761152d0c79bb0604c104a5fb6f4eb0703f3154bb3db285015591517f036b6384b5eca791c62761152d0c79bb0604c104a5fb6f4eb0703f3154bb3db3840180549190951692169190911790925590517f036b6384b5eca791c62761152d0c79bb0604c104a5fb6f4eb0703f3154bb3db48201559351929390927f036b6384b5eca791c62761152d0c79bb0604c104a5fb6f4eb0703f3154bb3db59091019061070e90826124ba565b5050506001600160a01b038516600081815260066020908152604080832080546001810182559084528284200185905592825260029052908120600401805485929061075b908490612590565b90915550506001600160a01b0385166000908152600260205260408120600501805491610787836125a9565b9190505550846001600160a01b0316336001600160a01b03167fa11ebbe219d358b6f0749f74bc1355e99cd107c7d4759804e3b4c450fc91c3f5858786866040516107d594939291906125c2565b60405180910390a3506107e86001600055565b50505050565b6006602052816000526040600020818154811061080a57600080fd5b90600052602060002001600091509150505481565b60008451116108645760405162461bcd60e51b8152602060048201526011602482015270155cd95c9b985b59481c995c5d5a5c9959607a1b6044820152606401610419565b6032845111156108aa5760405162461bcd60e51b8152602060048201526011602482015270557365726e616d6520746f6f206c6f6e6760781b6044820152606401610419565b6101f4835111156108ec5760405162461bcd60e51b815260206004820152600c60248201526b42696f20746f6f206c6f6e6760a01b6044820152606401610419565b60c8825111156109345760405162461bcd60e51b81526020600482015260136024820152724176617461722055524920746f6f206c6f6e6760681b6044820152606401610419565b600a8151111561097e5760405162461bcd60e51b8152602060048201526015602482015274546f6f206d616e7920736f6369616c206c696e6b7360581b6044820152606401610419565b60005b81518110156109fe57606482828151811061099e5761099e6125fd565b60200260200101515111156109ec5760405162461bcd60e51b8152602060048201526014602482015273536f6369616c206c696e6b20746f6f206c6f6e6760601b6044820152606401610419565b806109f6816125a9565b915050610981565b503360009081526003602052604090205460ff16610a71576004805460018181019092557f8a35acfbc15ff81a39ae7d344fd709f28e8600b4aa8c65c6b64bfe7fe36bd19b0180546001600160a01b031916339081179091556000908152600360205260409020805460ff191690911790555b6040805160e081018252858152602080820186905281830185905260608201849052336000818152600280845294812060048101546080860152600581015460a0860152600160c086015291905292905280519091908190610ad390826124ba565b5060208201516001820190610ae890826124ba565b5060408201516002820190610afd90826124ba565b5060608201518051610b19916003840191602090910190611d57565b506080820151600482015560a0820151600582015560c0909101516006909101805460ff191691151591909117905560405133907fbafddecbd1dec1c1afb76d693f1de16901f521bdf29a02438e3e6806c0b8d94890610b7a908790612613565b60405180910390a250505050565b610bdc6040518060c0016040528060006001600160a01b0316815260200160006001600160a01b031681526020016000815260200160006001600160a01b0316815260200160008152602001606081525090565b6005548210610c215760405162461bcd60e51b8152602060048201526011602482015270151a5c08191bd95cdb89dd08195e1a5cdd607a1b6044820152606401610419565b60058281548110610c3457610c346125fd565b60009182526020918290206040805160c081018252600690930290910180546001600160a01b0390811684526001820154811694840194909452600281015491830191909152600381015490921660608201526004820154608082015260058201805491929160a084019190610ca990612431565b80601f0160208091040260200160405190810160405280929190818152602001828054610cd590612431565b8015610d225780601f10610cf757610100808354040283529160200191610d22565b820191906000526020600020905b815481529060010190602001808311610d0557829003601f168201915b5050505050815250509050919050565b3360009081526002602052604090206006015460ff16610d8c5760405162461bcd60e51b8152602060048201526015602482015274141c9bd99a5b1948191bd95cdb89dd08195e1a5cdd605a1b6044820152606401610419565b6000845111610dd15760405162461bcd60e51b8152602060048201526011602482015270155cd95c9b985b59481c995c5d5a5c9959607a1b6044820152606401610419565b603284511115610e175760405162461bcd60e51b8152602060048201526011602482015270557365726e616d6520746f6f206c6f6e6760781b6044820152606401610419565b6101f483511115610e595760405162461bcd60e51b815260206004820152600c60248201526b42696f20746f6f206c6f6e6760a01b6044820152606401610419565b60c882511115610ea15760405162461bcd60e51b81526020600482015260136024820152724176617461722055524920746f6f206c6f6e6760681b6044820152606401610419565b600a81511115610eeb5760405162461bcd60e51b8152602060048201526015602482015274546f6f206d616e7920736f6369616c206c696e6b7360581b6044820152606401610419565b60005b8151811015610f6b576064828281518110610f0b57610f0b6125fd565b6020026020010151511115610f595760405162461bcd60e51b8152602060048201526014602482015273536f6369616c206c696e6b20746f6f206c6f6e6760601b6044820152606401610419565b80610f63816125a9565b915050610eee565b50336000908152600260205260409020610f8585826124ba565b50336000908152600260205260409020600101610fa284826124ba565b5033600090815260026020819052604090912001610fc083826124ba565b503360009081526002602090815260409091208251610fe792600390920191840190611d57565b50336001600160a01b03167fdd635a4cd84864e37e4479dbfc2ec667acfa473c83c8422a8ac9d9d07599b01c85604051610b7a9190612613565b611029611cab565b6110336000611d05565b565b60026020526000908152604090208054819061105090612431565b80601f016020809104026020016040519081016040528092919081815260200182805461107c90612431565b80156110c95780601f1061109e576101008083540402835291602001916110c9565b820191906000526020600020905b8154815290600101906020018083116110ac57829003601f168201915b5050505050908060010180546110de90612431565b80601f016020809104026020016040519081016040528092919081815260200182805461110a90612431565b80156111575780601f1061112c57610100808354040283529160200191611157565b820191906000526020600020905b81548152906001019060200180831161113a57829003601f168201915b50505050509080600201805461116c90612431565b80601f016020809104026020016040519081016040528092919081815260200182805461119890612431565b80156111e55780601f106111ba576101008083540402835291602001916111e5565b820191906000526020600020905b8154815290600101906020018083116111c857829003601f168201915b50505050600483015460058401546006909401549293909290915060ff1686565b6001600160a01b03811660009081526006602090815260409182902080548351818402810184019094528084526060939283018282801561126657602002820191906000526020600020905b815481526020019060010190808311611252575b50505050509050919050565b6112b46040518060e001604052806060815260200160608152602001606081526020016060815260200160008152602001600081526020016000151581525090565b6001600160a01b03821660009081526002602052604090819020815160e081019092528054829082906112e690612431565b80601f016020809104026020016040519081016040528092919081815260200182805461131290612431565b801561135f5780601f106113345761010080835404028352916020019161135f565b820191906000526020600020905b81548152906001019060200180831161134257829003601f168201915b5050505050815260200160018201805461137890612431565b80601f01602080910402602001604051908101604052809291908181526020018280546113a490612431565b80156113f15780601f106113c6576101008083540402835291602001916113f1565b820191906000526020600020905b8154815290600101906020018083116113d457829003601f168201915b5050505050815260200160028201805461140a90612431565b80601f016020809104026020016040519081016040528092919081815260200182805461143690612431565b80156114835780601f1061145857610100808354040283529160200191611483565b820191906000526020600020905b81548152906001019060200180831161146657829003601f168201915b5050505050815260200160038201805480602002602001604051908101604052809291908181526020016000905b8282101561155d5783829060005260206000200180546114d090612431565b80601f01602080910402602001604051908101604052809291908181526020018280546114fc90612431565b80156115495780601f1061151e57610100808354040283529160200191611549565b820191906000526020600020905b81548152906001019060200180831161152c57829003601f168201915b5050505050815260200190600101906114b1565b50505090825250600482015460208201526005820154604082015260069091015460ff16151560609091015292915050565b6005818154811061159f57600080fd5b60009182526020909120600690910201805460018201546002830154600384015460048501546005860180546001600160a01b03968716985094861696939590921693909291906115ef90612431565b80601f016020809104026020016040519081016040528092919081815260200182805461161b90612431565b80156116685780601f1061163d57610100808354040283529160200191611668565b820191906000526020600020905b81548152906001019060200180831161164b57829003601f168201915b5050505050905086565b6001600160a01b0381166000908152600260209081526040808320600301805482518185028101850190935280835260609492939192909184015b828210156117595783829060005260206000200180546116cc90612431565b80601f01602080910402602001604051908101604052809291908181526020018280546116f890612431565b80156117455780601f1061171a57610100808354040283529160200191611745565b820191906000526020600020905b81548152906001019060200180831161172857829003601f168201915b5050505050815260200190600101906116ad565b505050509050919050565b6004818154811061177457600080fd5b6000918252602090912001546001600160a01b0316905081565b611796611c52565b600034116117df5760405162461bcd60e51b8152602060048201526016602482015275054697020616d6f756e74206d757374206265203e20360541b6044820152606401610419565b6001600160a01b03821660009081526002602052604090206006015460ff166118425760405162461bcd60e51b815260206004820152601560248201527410dc99585d1bdc88191bd95cdb89dd08195e1a5cdd605a1b6044820152606401610419565b336001600160a01b038316036118905760405162461bcd60e51b815260206004820152601360248201527221b0b73737ba103a34b8103cb7bab939b2b63360691b6044820152606401610419565b6000826001600160a01b03163460405160006040518083038185875af1925050503d80600081146118dd576040519150601f19603f3d011682016040523d82523d6000602084013e6118e2565b606091505b50509050806119295760405162461bcd60e51b8152602060048201526013602482015272115512081d1c985b9cd9995c8819985a5b1959606a1b6044820152606401610419565b600580546040805160c0810182523381526001600160a01b038781166020830190815234938301938452600060608401818152426080860190815260a086018b8152600189018a55989092528451600688027f036b6384b5eca791c62761152d0c79bb0604c104a5fb6f4eb0703f3154bb3db0810180549287166001600160a01b031993841617815594517f036b6384b5eca791c62761152d0c79bb0604c104a5fb6f4eb0703f3154bb3db18201805491881691841691909117905596517f036b6384b5eca791c62761152d0c79bb0604c104a5fb6f4eb0703f3154bb3db288015590517f036b6384b5eca791c62761152d0c79bb0604c104a5fb6f4eb0703f3154bb3db3870180549190951691161790925590517f036b6384b5eca791c62761152d0c79bb0604c104a5fb6f4eb0703f3154bb3db484015593519293909290917f036b6384b5eca791c62761152d0c79bb0604c104a5fb6f4eb0703f3154bb3db50190611a9790826124ba565b5050506001600160a01b0384166000818152600660209081526040808320805460018101825590845282842001859055928252600290529081206004018054349290611ae4908490612590565b90915550506001600160a01b0384166000908152600260205260408120600501805491611b10836125a9565b9190505550836001600160a01b0316336001600160a01b03167fa11ebbe219d358b6f0749f74bc1355e99cd107c7d4759804e3b4c450fc91c3f53460008786604051611b5f94939291906125c2565b60405180910390a35050611b736001600055565b5050565b611b7f611cab565b6001600160a01b038116611be45760405162461bcd60e51b815260206004820152602660248201527f4f776e61626c653a206e6577206f776e657220697320746865207a65726f206160448201526564647265737360d01b6064820152608401610419565b611bed81611d05565b50565b60606004805480602002602001604051908101604052809291908181526020018280548015611c4857602002820191906000526020600020905b81546001600160a01b03168152600190910190602001808311611c2a575b5050505050905090565b600260005403611ca45760405162461bcd60e51b815260206004820152601f60248201527f5265656e7472616e637947756172643a207265656e7472616e742063616c6c006044820152606401610419565b6002600055565b6001546001600160a01b031633146110335760405162461bcd60e51b815260206004820181905260248201527f4f776e61626c653a2063616c6c6572206973206e6f7420746865206f776e65726044820152606401610419565b600180546001600160a01b038381166001600160a01b0319831681179093556040519116919082907f8be0079c531659141344cd1fd0a4f28419497f9722a3daafe3b4186f6b6457e090600090a35050565b828054828255906000526020600020908101928215611d9d579160200282015b82811115611d9d5782518290611d8d90826124ba565b5091602001919060010190611d77565b50611da9929150611dad565b5090565b80821115611da9576000611dc18282611dca565b50600101611dad565b508054611dd690612431565b6000825580601f10611de6575050565b601f016020900490600052602060002090810190611bed91905b80821115611da95760008155600101611e00565b80356001600160a01b0381168114611e2b57600080fd5b919050565b634e487b7160e01b600052604160045260246000fd5b604051601f8201601f1916810167ffffffffffffffff81118282101715611e6f57611e6f611e30565b604052919050565b600082601f830112611e8857600080fd5b813567ffffffffffffffff811115611ea257611ea2611e30565b611eb5601f8201601f1916602001611e46565b818152846020838601011115611eca57600080fd5b816020850160208301376000918101602001919091529392505050565b60008060008060808587031215611efd57600080fd5b611f0685611e14565b9350611f1460208601611e14565b925060408501359150606085013567ffffffffffffffff811115611f3757600080fd5b611f4387828801611e77565b91505092959194509250565b60008060408385031215611f6257600080fd5b611f6b83611e14565b946020939093013593505050565b60008060008060808587031215611f8f57600080fd5b843567ffffffffffffffff80821115611fa757600080fd5b611fb388838901611e77565b9550602091508187013581811115611fca57600080fd5b611fd689828a01611e77565b955050604087013581811115611feb57600080fd5b611ff789828a01611e77565b94505060608701358181111561200c57600080fd5b8701601f8101891361201d57600080fd5b80358281111561202f5761202f611e30565b8060051b61203e858201611e46565b918252828101850191858101908c84111561205857600080fd5b86850192505b83831015612094578235868111156120765760008081fd5b6120848e8983890101611e77565b835250918601919086019061205e565b999c989b5096995050505050505050565b6000602082840312156120b757600080fd5b5035919050565b6000815180845260005b818110156120e4576020818501810151868301820152016120c8565b506000602082860101526020601f19601f83011685010191505092915050565b60208152600060018060a01b038084511660208401528060208501511660408401526040840151606084015280606085015116608084015250608083015160a083015260a083015160c08084015261215f60e08401826120be565b949350505050565b60006020828403121561217957600080fd5b61218282611e14565b9392505050565b60c08152600061219c60c08301896120be565b82810360208401526121ae81896120be565b905082810360408401526121c281886120be565b606084019690965250506080810192909252151560a0909101529392505050565b6020808252825182820181905260009190848201906040850190845b8181101561221b578351835292840192918401916001016121ff565b50909695505050505050565b600081518084526020808501808196508360051b8101915082860160005b8581101561226f57828403895261225d8483516120be565b98850198935090840190600101612245565b5091979650505050505050565b602081526000825160e060208401526122996101008401826120be565b90506020840151601f19808584030160408601526122b783836120be565b925060408601519150808584030160608601526122d483836120be565b92506060860151915080858403016080860152506122f28282612227565b915050608084015160a084015260a084015160c084015260c0840151151560e08401528091505092915050565b6001600160a01b038781168252868116602083015260408201869052841660608201526080810183905260c060a08201819052600090612361908301846120be565b98975050505050505050565b6020815260006121826020830184612227565b6000806040838503121561239357600080fd5b61239c83611e14565b9150602083013567ffffffffffffffff8111156123b857600080fd5b6123c485828601611e77565b9150509250929050565b6020808252825182820181905260009190848201906040850190845b8181101561221b5783516001600160a01b0316835292840192918401916001016123ea565b60006020828403121561242157600080fd5b8151801515811461218257600080fd5b600181811c9082168061244557607f821691505b60208210810361246557634e487b7160e01b600052602260045260246000fd5b50919050565b601f8211156124b557600081815260208120601f850160051c810160208610156124925750805b601f850160051c820191505b818110156124b15782815560010161249e565b5050505b505050565b815167ffffffffffffffff8111156124d4576124d4611e30565b6124e8816124e28454612431565b8461246b565b602080601f83116001811461251d57600084156125055750858301515b600019600386901b1c1916600185901b1785556124b1565b600085815260208120601f198616915b8281101561254c5788860151825594840194600190910190840161252d565b508582101561256a5787850151600019600388901b60f8161c191681555b5050505050600190811b01905550565b634e487b7160e01b600052601160045260246000fd5b808201808211156125a3576125a361257a565b92915050565b6000600182016125bb576125bb61257a565b5060010190565b8481526001600160a01b03841660208201526080604082018190526000906125ec908301856120be565b905082606083015295945050505050565b634e487b7160e01b600052603260045260246000fd5b60208152600061218260208301846120be56fea2646970667358221220ac5270927e8c498c8d7331a29ef4ed74a948c6acb125fee9610316be09c1a45f64736f6c63430008130033",
  "linkReferences": {},
  "deployedLinkReferences": {}
}